{
  "_format": "hh-sol-artifact-1",
  "contractName": "PetAdoption",
  "sourceName": "contracts/PetAdoption.sol",
  "abi": [
    {
      "inputs": [
        {
          "internalType": "uint256",
          "name": "initialPetIndex",
          "type": "uint256"
        }
      ],
      "stateMutability": "nonpayable",
      "type": "constructor"
    },
    {
      "inputs": [],
      "name": "addPet",
      "outputs": [],
      "stateMutability": "nonpayable",
      "type": "function"
    },
    {
      "inputs": [
        {
          "internalType": "uint256",
          "name": "adoptIdx",
          "type": "uint256"
        }
      ],
      "name": "adoptPet",
      "outputs": [],
      "stateMutability": "nonpayable",
      "type": "function"
    },
    {
      "inputs": [
        {
          "internalType": "uint256",
          "name": "",
          "type": "uint256"
        }
      ],
      "name": "allAdoptedPets",
      "outputs": [
        {
          "internalType": "uint256",
          "name": "",
          "type": "uint256"
        }
      ],
      "stateMutability": "view",
      "type": "function"
    },
    {
      "inputs": [],
      "name": "getAllAdoptedPets",
      "outputs": [
        {
          "internalType": "uint256[]",
          "name": "",
          "type": "uint256[]"
        }
      ],
      "stateMutability": "view",
      "type": "function"
    },
    {
      "inputs": [],
      "name": "getAllAdoptedPetsByOnwer",
      "outputs": [
        {
          "internalType": "uint256[]",
          "name": "",
          "type": "uint256[]"
        }
      ],
      "stateMutability": "view",
      "type": "function"
    },
    {
      "inputs": [],
      "name": "getOwner",
      "outputs": [
        {
          "internalType": "address",
          "name": "",
          "type": "address"
        }
      ],
      "stateMutability": "view",
      "type": "function"
    },
    {
      "inputs": [],
      "name": "owner",
      "outputs": [
        {
          "internalType": "address",
          "name": "",
          "type": "address"
        }
      ],
      "stateMutability": "view",
      "type": "function"
    },
    {
      "inputs": [
        {
          "internalType": "address",
          "name": "",
          "type": "address"
        },
        {
          "internalType": "uint256",
          "name": "",
          "type": "uint256"
        }
      ],
      "name": "ownerAddressToPetList",
      "outputs": [
        {
          "internalType": "uint256",
          "name": "",
          "type": "uint256"
        }
      ],
      "stateMutability": "view",
      "type": "function"
    },
    {
      "inputs": [
        {
          "internalType": "uint256",
          "name": "",
          "type": "uint256"
        }
      ],
      "name": "petIdxToOwnerAddress",
      "outputs": [
        {
          "internalType": "address",
          "name": "",
          "type": "address"
        }
      ],
      "stateMutability": "view",
      "type": "function"
    },
    {
      "inputs": [],
      "name": "petIndex",
      "outputs": [
        {
          "internalType": "uint256",
          "name": "",
          "type": "uint256"
        }
      ],
      "stateMutability": "view",
      "type": "function"
    }
  ],
  "bytecode": "0x6080604052600060015534801561001557600080fd5b50604051610b86380380610b86833981810160405281019061003791906100bf565b336000806101000a81548173ffffffffffffffffffffffffffffffffffffffff021916908373ffffffffffffffffffffffffffffffffffffffff16021790555080600181905550506100ec565b600080fd5b6000819050919050565b61009c81610089565b81146100a757600080fd5b50565b6000815190506100b981610093565b92915050565b6000602082840312156100d5576100d4610084565b5b60006100e3848285016100aa565b91505092915050565b610a8b806100fb6000396000f3fe608060405234801561001057600080fd5b506004361061009e5760003560e01c8063893d20e811610066578063893d20e8146101355780638da5cb5b14610153578063a002a13514610171578063b2421a32146101a1578063b77636e8146101d15761009e565b806319b81577146100a357806330671a09146100bf5780633ff4a0eb146100dd57806346f43d43146100fb5780635f5799ef14610105575b600080fd5b6100bd60048036038101906100b89190610664565b6101ef565b005b6100c76103b9565b6040516100d491906106a0565b60405180910390f35b6100e56103bf565b6040516100f29190610779565b60405180910390f35b610103610417565b005b61011f600480360381019061011a91906107f9565b6104bf565b60405161012c91906106a0565b60405180910390f35b61013d6104f0565b60405161014a9190610848565b60405180910390f35b61015b610519565b6040516101689190610848565b60405180910390f35b61018b60048036038101906101869190610664565b61053d565b60405161019891906106a0565b60405180910390f35b6101bb60048036038101906101b69190610664565b610561565b6040516101c89190610848565b60405180910390f35b6101d9610594565b6040516101e69190610779565b60405180910390f35b6001548110610233576040517f08c379a000000000000000000000000000000000000000000000000000000000815260040161022a906108c0565b60405180910390fd5b600073ffffffffffffffffffffffffffffffffffffffff166003600083815260200190815260200160002060009054906101000a900473ffffffffffffffffffffffffffffffffffffffff1673ffffffffffffffffffffffffffffffffffffffff16146102d5576040517f08c379a00000000000000000000000000000000000000000000000000000000081526004016102cc9061092c565b60405180910390fd5b336003600083815260200190815260200160002060006101000a81548173ffffffffffffffffffffffffffffffffffffffff021916908373ffffffffffffffffffffffffffffffffffffffff160217905550600460003373ffffffffffffffffffffffffffffffffffffffff1673ffffffffffffffffffffffffffffffffffffffff168152602001908152602001600020819080600181540180825580915050600190039060005260206000200160009091909190915055600281908060018154018082558091505060019003906000526020600020016000909190919091505550565b60015481565b6060600280548060200260200160405190810160405280929190818152602001828054801561040d57602002820191906000526020600020905b8154815260200190600101908083116103f9575b5050505050905090565b60008054906101000a900473ffffffffffffffffffffffffffffffffffffffff1673ffffffffffffffffffffffffffffffffffffffff163373ffffffffffffffffffffffffffffffffffffffff16146104a5576040517f08c379a000000000000000000000000000000000000000000000000000000000815260040161049c906109be565b60405180910390fd5b600160008154809291906104b890610a0d565b9190505550565b600460205281600052604060002081815481106104db57600080fd5b90600052602060002001600091509150505481565b60008060009054906101000a900473ffffffffffffffffffffffffffffffffffffffff16905090565b60008054906101000a900473ffffffffffffffffffffffffffffffffffffffff1681565b6002818154811061054d57600080fd5b906000526020600020016000915090505481565b60036020528060005260406000206000915054906101000a900473ffffffffffffffffffffffffffffffffffffffff1681565b6060600460003373ffffffffffffffffffffffffffffffffffffffff1673ffffffffffffffffffffffffffffffffffffffff16815260200190815260200160002080548060200260200160405190810160405280929190818152602001828054801561061f57602002820191906000526020600020905b81548152602001906001019080831161060b575b5050505050905090565b600080fd5b6000819050919050565b6106418161062e565b811461064c57600080fd5b50565b60008135905061065e81610638565b92915050565b60006020828403121561067a57610679610629565b5b60006106888482850161064f565b91505092915050565b61069a8161062e565b82525050565b60006020820190506106b56000830184610691565b92915050565b600081519050919050565b600082825260208201905092915050565b6000819050602082019050919050565b6106f08161062e565b82525050565b600061070283836106e7565b60208301905092915050565b6000602082019050919050565b6000610726826106bb565b61073081856106c6565b935061073b836106d7565b8060005b8381101561076c57815161075388826106f6565b975061075e8361070e565b92505060018101905061073f565b5085935050505092915050565b60006020820190508181036000830152610793818461071b565b905092915050565b600073ffffffffffffffffffffffffffffffffffffffff82169050919050565b60006107c68261079b565b9050919050565b6107d6816107bb565b81146107e157600080fd5b50565b6000813590506107f3816107cd565b92915050565b600080604083850312156108105761080f610629565b5b600061081e858286016107e4565b925050602061082f8582860161064f565b9150509250929050565b610842816107bb565b82525050565b600060208201905061085d6000830184610839565b92915050565b600082825260208201905092915050565b7f50657420696e646578206f7574206f6620626f756e6473210000000000000000600082015250565b60006108aa601883610863565b91506108b582610874565b602082019050919050565b600060208201905081810360008301526108d98161089d565b9050919050565b7f50657420697320616c72656164792061646f7074656400000000000000000000600082015250565b6000610916601683610863565b9150610921826108e0565b602082019050919050565b6000602082019050818103600083015261094581610909565b9050919050565b7f4f6e6c79206120636f6e7472616374206f776e65722063616e2061646420612060008201527f6e65772070657421000000000000000000000000000000000000000000000000602082015250565b60006109a8602883610863565b91506109b38261094c565b604082019050919050565b600060208201905081810360008301526109d78161099b565b9050919050565b7f4e487b7100000000000000000000000000000000000000000000000000000000600052601160045260246000fd5b6000610a188261062e565b91507fffffffffffffffffffffffffffffffffffffffffffffffffffffffffffffffff8203610a4a57610a496109de565b5b60018201905091905056fea2646970667358221220fda3e8e5ae4c4f8f464ad5651b4bb94c721c83257eb4d8638813270791b6724164736f6c63430008120033",
  "linkReferences": {},
  "deployedLinkReferences": {}
}